{
  "contractName": "ChildPotatoMigrator",
  "abi": [
    {
      "inputs": [
        {
          "internalType": "address",
          "name": "potato_",
          "type": "address"
        },
        {
          "internalType": "address",
          "name": "farm_",
          "type": "address"
        }
      ],
      "stateMutability": "nonpayable",
      "type": "constructor"
    },
    {
      "inputs": [
        {
          "internalType": "uint256",
          "name": "",
          "type": "uint256"
        },
        {
          "internalType": "bytes",
          "name": "data",
          "type": "bytes"
        }
      ],
      "name": "onStateReceive",
      "outputs": [],
      "stateMutability": "nonpayable",
      "type": "function"
    }
  ],
  "bytecode": "0x608060405234801561001057600080fd5b506040516102713803806102718339818101604052604081101561003357600080fd5b508051602090910151600080546001600160a01b039384166001600160a01b031991821617909155600180549390921692169190911790556101f78061007a6000396000f3fe608060405234801561001057600080fd5b506004361061002b5760003560e01c806326c53bea14610030575b600080fd5b6100a76004803603604081101561004657600080fd5b8135919081019060408101602082013564010000000081111561006857600080fd5b82018360208201111561007a57600080fd5b8035906020019184600183028401116401000000008311171561009c57600080fd5b5090925090506100a9565b005b600080838360408110156100bc57600080fd5b50600080546001546040805163095ea7b360e01b81526001600160a01b039283166004820152602080870135602483018190529251963584169850919650929091169363095ea7b3936044808501948390030190829087803b15801561012157600080fd5b505af1158015610135573d6000803e3d6000fd5b505050506040513d602081101561014b57600080fd5b50506001546040805163181fe92f60e11b81526001600160a01b038581166004830152602482018590529151919092169163303fd25e91604480830192600092919082900301818387803b1580156101a257600080fd5b505af11580156101b6573d6000803e3d6000fd5b50505050505050505056fea2646970667358221220468826eaeb3f8647b6c67332f0dcda868a6f4c6333606642decdf0fffdba2b5364736f6c63430006060033",
  "immutableReferences": {},
  "source": "pragma solidity 0.6.6;\n\nimport \"@openzeppelin/contracts/token/ERC20/IERC20.sol\";\nimport \"../../child/IStateReceiver.sol\";\nimport \"./ChildPotatoFarm.sol\";\n\n// This contract receives the deposit of potatoes from pos bridge\n// then plants the potatoes for user using custom state sync\ncontract ChildPotatoMigrator is IStateReceiver {\n  IERC20 potato;\n  ChildPotatoFarm farm;\n  constructor(address potato_, address farm_) public {\n    potato = IERC20(potato_);\n    farm = ChildPotatoFarm(farm_);\n  }\n\n  function onStateReceive(uint, bytes calldata data) external override {\n    (address user, uint amount) = abi.decode(data, (address, uint));\n    potato.approve(address(farm), amount);\n    farm.plantFor(user, amount);\n  }\n}\n",
  "sourcePath": "/home/moiz/pos-portal/contracts/test/PotatoMigration/ChildPotatoMigrator.sol",
  "compiler": {
    "name": "solc",
    "version": "0.6.6+commit.6c089d02.Emscripten.clang"
  },
  "schemaVersion": "3.2.1",
  "updatedAt": "2022-07-22T04:49:36.023Z",
  "devdoc": {
    "methods": {}
  },
  "userdoc": {
    "methods": {}
  }
}