{
  "contractName": "UChildDAI",
  "abi": [
    {
      "anonymous": false,
      "inputs": [
        {
          "indexed": true,
          "internalType": "address",
          "name": "owner",
          "type": "address"
        },
        {
          "indexed": true,
          "internalType": "address",
          "name": "spender",
          "type": "address"
        },
        {
          "indexed": false,
          "internalType": "uint256",
          "name": "value",
          "type": "uint256"
        }
      ],
      "name": "Approval",
      "type": "event"
    },
    {
      "anonymous": false,
      "inputs": [
        {
          "indexed": false,
          "internalType": "address",
          "name": "userAddress",
          "type": "address"
        },
        {
          "indexed": false,
          "internalType": "address payable",
          "name": "relayerAddress",
          "type": "address"
        },
        {
          "indexed": false,
          "internalType": "bytes",
          "name": "functionSignature",
          "type": "bytes"
        }
      ],
      "name": "MetaTransactionExecuted",
      "type": "event"
    },
    {
      "anonymous": false,
      "inputs": [
        {
          "indexed": true,
          "internalType": "bytes32",
          "name": "role",
          "type": "bytes32"
        },
        {
          "indexed": true,
          "internalType": "bytes32",
          "name": "previousAdminRole",
          "type": "bytes32"
        },
        {
          "indexed": true,
          "internalType": "bytes32",
          "name": "newAdminRole",
          "type": "bytes32"
        }
      ],
      "name": "RoleAdminChanged",
      "type": "event"
    },
    {
      "anonymous": false,
      "inputs": [
        {
          "indexed": true,
          "internalType": "bytes32",
          "name": "role",
          "type": "bytes32"
        },
        {
          "indexed": true,
          "internalType": "address",
          "name": "account",
          "type": "address"
        },
        {
          "indexed": true,
          "internalType": "address",
          "name": "sender",
          "type": "address"
        }
      ],
      "name": "RoleGranted",
      "type": "event"
    },
    {
      "anonymous": false,
      "inputs": [
        {
          "indexed": true,
          "internalType": "bytes32",
          "name": "role",
          "type": "bytes32"
        },
        {
          "indexed": true,
          "internalType": "address",
          "name": "account",
          "type": "address"
        },
        {
          "indexed": true,
          "internalType": "address",
          "name": "sender",
          "type": "address"
        }
      ],
      "name": "RoleRevoked",
      "type": "event"
    },
    {
      "anonymous": false,
      "inputs": [
        {
          "indexed": true,
          "internalType": "address",
          "name": "from",
          "type": "address"
        },
        {
          "indexed": true,
          "internalType": "address",
          "name": "to",
          "type": "address"
        },
        {
          "indexed": false,
          "internalType": "uint256",
          "name": "value",
          "type": "uint256"
        }
      ],
      "name": "Transfer",
      "type": "event"
    },
    {
      "inputs": [],
      "name": "DEFAULT_ADMIN_ROLE",
      "outputs": [
        {
          "internalType": "bytes32",
          "name": "",
          "type": "bytes32"
        }
      ],
      "stateMutability": "view",
      "type": "function"
    },
    {
      "inputs": [],
      "name": "DEPOSITOR_ROLE",
      "outputs": [
        {
          "internalType": "bytes32",
          "name": "",
          "type": "bytes32"
        }
      ],
      "stateMutability": "view",
      "type": "function"
    },
    {
      "inputs": [],
      "name": "ERC712_VERSION",
      "outputs": [
        {
          "internalType": "string",
          "name": "",
          "type": "string"
        }
      ],
      "stateMutability": "view",
      "type": "function"
    },
    {
      "inputs": [],
      "name": "PERMIT_TYPEHASH",
      "outputs": [
        {
          "internalType": "bytes32",
          "name": "",
          "type": "bytes32"
        }
      ],
      "stateMutability": "view",
      "type": "function"
    },
    {
      "inputs": [
        {
          "internalType": "address",
          "name": "owner",
          "type": "address"
        },
        {
          "internalType": "address",
          "name": "spender",
          "type": "address"
        }
      ],
      "name": "allowance",
      "outputs": [
        {
          "internalType": "uint256",
          "name": "",
          "type": "uint256"
        }
      ],
      "stateMutability": "view",
      "type": "function"
    },
    {
      "inputs": [
        {
          "internalType": "address",
          "name": "spender",
          "type": "address"
        },
        {
          "internalType": "uint256",
          "name": "amount",
          "type": "uint256"
        }
      ],
      "name": "approve",
      "outputs": [
        {
          "internalType": "bool",
          "name": "",
          "type": "bool"
        }
      ],
      "stateMutability": "nonpayable",
      "type": "function"
    },
    {
      "inputs": [
        {
          "internalType": "address",
          "name": "account",
          "type": "address"
        }
      ],
      "name": "balanceOf",
      "outputs": [
        {
          "internalType": "uint256",
          "name": "",
          "type": "uint256"
        }
      ],
      "stateMutability": "view",
      "type": "function"
    },
    {
      "inputs": [
        {
          "internalType": "string",
          "name": "name_",
          "type": "string"
        }
      ],
      "name": "changeName",
      "outputs": [],
      "stateMutability": "nonpayable",
      "type": "function"
    },
    {
      "inputs": [],
      "name": "decimals",
      "outputs": [
        {
          "internalType": "uint8",
          "name": "",
          "type": "uint8"
        }
      ],
      "stateMutability": "view",
      "type": "function"
    },
    {
      "inputs": [
        {
          "internalType": "address",
          "name": "spender",
          "type": "address"
        },
        {
          "internalType": "uint256",
          "name": "subtractedValue",
          "type": "uint256"
        }
      ],
      "name": "decreaseAllowance",
      "outputs": [
        {
          "internalType": "bool",
          "name": "",
          "type": "bool"
        }
      ],
      "stateMutability": "nonpayable",
      "type": "function"
    },
    {
      "inputs": [
        {
          "internalType": "address",
          "name": "user",
          "type": "address"
        },
        {
          "internalType": "bytes",
          "name": "depositData",
          "type": "bytes"
        }
      ],
      "name": "deposit",
      "outputs": [],
      "stateMutability": "nonpayable",
      "type": "function"
    },
    {
      "inputs": [
        {
          "internalType": "address",
          "name": "userAddress",
          "type": "address"
        },
        {
          "internalType": "bytes",
          "name": "functionSignature",
          "type": "bytes"
        },
        {
          "internalType": "bytes32",
          "name": "sigR",
          "type": "bytes32"
        },
        {
          "internalType": "bytes32",
          "name": "sigS",
          "type": "bytes32"
        },
        {
          "internalType": "uint8",
          "name": "sigV",
          "type": "uint8"
        }
      ],
      "name": "executeMetaTransaction",
      "outputs": [
        {
          "internalType": "bytes",
          "name": "",
          "type": "bytes"
        }
      ],
      "stateMutability": "payable",
      "type": "function"
    },
    {
      "inputs": [],
      "name": "getChainId",
      "outputs": [
        {
          "internalType": "uint256",
          "name": "",
          "type": "uint256"
        }
      ],
      "stateMutability": "pure",
      "type": "function"
    },
    {
      "inputs": [],
      "name": "getDomainSeperator",
      "outputs": [
        {
          "internalType": "bytes32",
          "name": "",
          "type": "bytes32"
        }
      ],
      "stateMutability": "view",
      "type": "function"
    },
    {
      "inputs": [
        {
          "internalType": "address",
          "name": "user",
          "type": "address"
        }
      ],
      "name": "getNonce",
      "outputs": [
        {
          "internalType": "uint256",
          "name": "nonce",
          "type": "uint256"
        }
      ],
      "stateMutability": "view",
      "type": "function"
    },
    {
      "inputs": [
        {
          "internalType": "bytes32",
          "name": "role",
          "type": "bytes32"
        }
      ],
      "name": "getRoleAdmin",
      "outputs": [
        {
          "internalType": "bytes32",
          "name": "",
          "type": "bytes32"
        }
      ],
      "stateMutability": "view",
      "type": "function"
    },
    {
      "inputs": [
        {
          "internalType": "bytes32",
          "name": "role",
          "type": "bytes32"
        },
        {
          "internalType": "uint256",
          "name": "index",
          "type": "uint256"
        }
      ],
      "name": "getRoleMember",
      "outputs": [
        {
          "internalType": "address",
          "name": "",
          "type": "address"
        }
      ],
      "stateMutability": "view",
      "type": "function"
    },
    {
      "inputs": [
        {
          "internalType": "bytes32",
          "name": "role",
          "type": "bytes32"
        }
      ],
      "name": "getRoleMemberCount",
      "outputs": [
        {
          "internalType": "uint256",
          "name": "",
          "type": "uint256"
        }
      ],
      "stateMutability": "view",
      "type": "function"
    },
    {
      "inputs": [
        {
          "internalType": "bytes32",
          "name": "role",
          "type": "bytes32"
        },
        {
          "internalType": "address",
          "name": "account",
          "type": "address"
        }
      ],
      "name": "grantRole",
      "outputs": [],
      "stateMutability": "nonpayable",
      "type": "function"
    },
    {
      "inputs": [
        {
          "internalType": "bytes32",
          "name": "role",
          "type": "bytes32"
        },
        {
          "internalType": "address",
          "name": "account",
          "type": "address"
        }
      ],
      "name": "hasRole",
      "outputs": [
        {
          "internalType": "bool",
          "name": "",
          "type": "bool"
        }
      ],
      "stateMutability": "view",
      "type": "function"
    },
    {
      "inputs": [
        {
          "internalType": "address",
          "name": "spender",
          "type": "address"
        },
        {
          "internalType": "uint256",
          "name": "addedValue",
          "type": "uint256"
        }
      ],
      "name": "increaseAllowance",
      "outputs": [
        {
          "internalType": "bool",
          "name": "",
          "type": "bool"
        }
      ],
      "stateMutability": "nonpayable",
      "type": "function"
    },
    {
      "inputs": [
        {
          "internalType": "string",
          "name": "name_",
          "type": "string"
        },
        {
          "internalType": "string",
          "name": "symbol_",
          "type": "string"
        },
        {
          "internalType": "uint8",
          "name": "decimals_",
          "type": "uint8"
        },
        {
          "internalType": "address",
          "name": "childChainManager",
          "type": "address"
        }
      ],
      "name": "initialize",
      "outputs": [],
      "stateMutability": "nonpayable",
      "type": "function"
    },
    {
      "inputs": [],
      "name": "name",
      "outputs": [
        {
          "internalType": "string",
          "name": "",
          "type": "string"
        }
      ],
      "stateMutability": "view",
      "type": "function"
    },
    {
      "inputs": [
        {
          "internalType": "bytes32",
          "name": "role",
          "type": "bytes32"
        },
        {
          "internalType": "address",
          "name": "account",
          "type": "address"
        }
      ],
      "name": "renounceRole",
      "outputs": [],
      "stateMutability": "nonpayable",
      "type": "function"
    },
    {
      "inputs": [
        {
          "internalType": "bytes32",
          "name": "role",
          "type": "bytes32"
        },
        {
          "internalType": "address",
          "name": "account",
          "type": "address"
        }
      ],
      "name": "revokeRole",
      "outputs": [],
      "stateMutability": "nonpayable",
      "type": "function"
    },
    {
      "inputs": [],
      "name": "symbol",
      "outputs": [
        {
          "internalType": "string",
          "name": "",
          "type": "string"
        }
      ],
      "stateMutability": "view",
      "type": "function"
    },
    {
      "inputs": [],
      "name": "totalSupply",
      "outputs": [
        {
          "internalType": "uint256",
          "name": "",
          "type": "uint256"
        }
      ],
      "stateMutability": "view",
      "type": "function"
    },
    {
      "inputs": [
        {
          "internalType": "address",
          "name": "recipient",
          "type": "address"
        },
        {
          "internalType": "uint256",
          "name": "amount",
          "type": "uint256"
        }
      ],
      "name": "transfer",
      "outputs": [
        {
          "internalType": "bool",
          "name": "",
          "type": "bool"
        }
      ],
      "stateMutability": "nonpayable",
      "type": "function"
    },
    {
      "inputs": [
        {
          "internalType": "address",
          "name": "sender",
          "type": "address"
        },
        {
          "internalType": "address",
          "name": "recipient",
          "type": "address"
        },
        {
          "internalType": "uint256",
          "name": "amount",
          "type": "uint256"
        }
      ],
      "name": "transferFrom",
      "outputs": [
        {
          "internalType": "bool",
          "name": "",
          "type": "bool"
        }
      ],
      "stateMutability": "nonpayable",
      "type": "function"
    },
    {
      "inputs": [
        {
          "internalType": "uint256",
          "name": "amount",
          "type": "uint256"
        }
      ],
      "name": "withdraw",
      "outputs": [],
      "stateMutability": "nonpayable",
      "type": "function"
    },
    {
      "inputs": [
        {
          "internalType": "address",
          "name": "usr",
          "type": "address"
        },
        {
          "internalType": "uint256",
          "name": "wad",
          "type": "uint256"
        }
      ],
      "name": "push",
      "outputs": [],
      "stateMutability": "nonpayable",
      "type": "function"
    },
    {
      "inputs": [
        {
          "internalType": "address",
          "name": "usr",
          "type": "address"
        },
        {
          "internalType": "uint256",
          "name": "wad",
          "type": "uint256"
        }
      ],
      "name": "pull",
      "outputs": [],
      "stateMutability": "nonpayable",
      "type": "function"
    },
    {
      "inputs": [
        {
          "internalType": "address",
          "name": "src",
          "type": "address"
        },
        {
          "internalType": "address",
          "name": "dst",
          "type": "address"
        },
        {
          "internalType": "uint256",
          "name": "wad",
          "type": "uint256"
        }
      ],
      "name": "move",
      "outputs": [],
      "stateMutability": "nonpayable",
      "type": "function"
    },
    {
      "inputs": [
        {
          "internalType": "address",
          "name": "holder",
          "type": "address"
        },
        {
          "internalType": "address",
          "name": "spender",
          "type": "address"
        },
        {
          "internalType": "uint256",
          "name": "nonce",
          "type": "uint256"
        },
        {
          "internalType": "uint256",
          "name": "expiry",
          "type": "uint256"
        },
        {
          "internalType": "bool",
          "name": "allowed",
          "type": "bool"
        },
        {
          "internalType": "uint8",
          "name": "v",
          "type": "uint8"
        },
        {
          "internalType": "bytes32",
          "name": "r",
          "type": "bytes32"
        },
        {
          "internalType": "bytes32",
          "name": "s",
          "type": "bytes32"
        }
      ],
      "name": "permit",
      "outputs": [],
      "stateMutability": "nonpayable",
      "type": "function"
    }
  ],
  "bytecode": "0x6008805460ff191690556000608081815260c060405260a082815290916200002c90600390839062000058565b5080516200004290600490602084019062000058565b50506005805460ff1916601217905550620000fd565b828054600181600116156101000203166002900490600052602060002090601f016020900481019282601f106200009b57805160ff1916838001178555620000cb565b82800160010185558215620000cb579182015b82811115620000cb578251825591602001919060010190620000ae565b50620000d9929150620000dd565b5090565b620000fa91905b80821115620000d95760008155600101620000e4565b90565b61298b806200010d6000396000f3fe6080604052600436106101f95760003560e01c806370a082311161010d578063a9059cbb116100a0578063cf2c52cb1161006f578063cf2c52cb146108a5578063d547741f14610930578063dd62ed3e14610969578063de7ea79d146109a4578063f2d5d56b14610a81576101f9565b8063a9059cbb146107c6578063b753a98c146107ff578063bb35783b14610838578063ca15c8731461087b576101f9565b806395d89b41116100dc57806395d89b411461074e578063a217fddf14610763578063a3b0b5a314610778578063a457c2d71461078d576101f9565b806370a082311461062f5780638fcbaf0c146106625780639010d07c146106c957806391d1485414610715576101f9565b80632d0335ab11610190578063313ce5671161015f578063313ce567146105025780633408e4701461052d57806336568abe14610542578063395093511461057b5780635353a2d8146105b4576101f9565b80632d0335ab146104555780632e1a7d4d146104885780632f2ff15d146104b457806330adf81f146104ed576101f9565b806318160ddd116101cc57806318160ddd146103ac57806320379ee5146103d357806323b872dd146103e8578063248a9ca31461042b576101f9565b806306fdde03146101fe578063095ea7b3146102885780630c53c51c146102d55780630f7e597014610397575b600080fd5b34801561020a57600080fd5b50610213610aba565b6040805160208082528351818301528351919283929083019185019080838360005b8381101561024d578181015183820152602001610235565b50505050905090810190601f16801561027a5780820380516001836020036101000a031916815260200191505b509250505060405180910390f35b34801561029457600080fd5b506102c1600480360360408110156102ab57600080fd5b506001600160a01b038135169060200135610b51565b604080519115158252519081900360200190f35b610213600480360360a08110156102eb57600080fd5b6001600160a01b038235169190810190604081016020820135600160201b81111561031557600080fd5b82018360208201111561032757600080fd5b803590602001918460018302840111600160201b8311171561034857600080fd5b91908080601f016020809104026020016040519081016040528093929190818152602001838380828437600092019190915250929550508235935050506020810135906040013560ff16610b6f565b3480156103a357600080fd5b50610213610e72565b3480156103b857600080fd5b506103c1610e8f565b60408051918252519081900360200190f35b3480156103df57600080fd5b506103c1610e95565b3480156103f457600080fd5b506102c16004803603606081101561040b57600080fd5b506001600160a01b03813581169160208101359091169060400135610e9b565b34801561043757600080fd5b506103c16004803603602081101561044e57600080fd5b5035610f28565b34801561046157600080fd5b506103c16004803603602081101561047857600080fd5b50356001600160a01b0316610f3d565b34801561049457600080fd5b506104b2600480360360208110156104ab57600080fd5b5035610f58565b005b3480156104c057600080fd5b506104b2600480360360408110156104d757600080fd5b50803590602001356001600160a01b0316610f6c565b3480156104f957600080fd5b506103c1610fd8565b34801561050e57600080fd5b50610517610ffc565b6040805160ff9092168252519081900360200190f35b34801561053957600080fd5b506103c1611005565b34801561054e57600080fd5b506104b26004803603604081101561056557600080fd5b50803590602001356001600160a01b0316611009565b34801561058757600080fd5b506102c16004803603604081101561059e57600080fd5b506001600160a01b03813516906020013561106a565b3480156105c057600080fd5b506104b2600480360360208110156105d757600080fd5b810190602081018135600160201b8111156105f157600080fd5b82018360208201111561060357600080fd5b803590602001918460018302840111600160201b8311171561062457600080fd5b5090925090506110be565b34801561063b57600080fd5b506103c16004803603602081101561065257600080fd5b50356001600160a01b03166111f0565b34801561066e57600080fd5b506104b2600480360361010081101561068657600080fd5b506001600160a01b038135811691602081013590911690604081013590606081013590608081013515159060ff60a0820135169060c08101359060e0013561120b565b3480156106d557600080fd5b506106f9600480360360408110156106ec57600080fd5b50803590602001356114ca565b604080516001600160a01b039092168252519081900360200190f35b34801561072157600080fd5b506102c16004803603604081101561073857600080fd5b50803590602001356001600160a01b03166114ef565b34801561075a57600080fd5b5061021361150d565b34801561076f57600080fd5b506103c161156e565b34801561078457600080fd5b506103c1611573565b34801561079957600080fd5b506102c1600480360360408110156107b057600080fd5b506001600160a01b038135169060200135611599565b3480156107d257600080fd5b506102c1600480360360408110156107e957600080fd5b506001600160a01b038135169060200135611607565b34801561080b57600080fd5b506104b26004803603604081101561082257600080fd5b506001600160a01b03813516906020013561161b565b34801561084457600080fd5b506104b26004803603606081101561085b57600080fd5b506001600160a01b03813581169160208101359091169060400135611626565b34801561088757600080fd5b506103c16004803603602081101561089e57600080fd5b5035611637565b3480156108b157600080fd5b506104b2600480360360408110156108c857600080fd5b6001600160a01b038235169190810190604081016020820135600160201b8111156108f257600080fd5b82018360208201111561090457600080fd5b803590602001918460018302840111600160201b8311171561092557600080fd5b50909250905061164e565b34801561093c57600080fd5b506104b26004803603604081101561095357600080fd5b50803590602001356001600160a01b031661170b565b34801561097557600080fd5b506103c16004803603604081101561098c57600080fd5b506001600160a01b0381358116916020013516611764565b3480156109b057600080fd5b506104b2600480360360808110156109c757600080fd5b810190602081018135600160201b8111156109e157600080fd5b8201836020820111156109f357600080fd5b803590602001918460018302840111600160201b83111715610a1457600080fd5b919390929091602081019035600160201b811115610a3157600080fd5b820183602082011115610a4357600080fd5b803590602001918460018302840111600160201b83111715610a6457600080fd5b9193509150803560ff1690602001356001600160a01b031661178f565b348015610a8d57600080fd5b506104b260048036036040811015610aa457600080fd5b506001600160a01b038135169060200135611933565b60038054604080516020601f6002600019610100600188161502019095169490940493840181900481028201810190925282815260609390929091830182828015610b465780601f10610b1b57610100808354040283529160200191610b46565b820191906000526020600020905b815481529060010190602001808311610b2957829003601f168201915b505050505090505b90565b6000610b65610b5e61193e565b848461194d565b5060015b92915050565b6060610b796125a5565b50604080516060810182526001600160a01b0388166000818152600a602090815290849020548352820152908101869052610bb78782878787611a39565b610bf25760405162461bcd60e51b81526004018080602001828103825260218152602001806128556021913960400191505060405180910390fd5b6001600160a01b0387166000908152600a6020526040902054610c1c90600163ffffffff611b1616565b6001600160a01b0388166000818152600a602090815260408083209490945583519283523383820181905260609484018581528b51958501959095528a517f5845892132946850460bff5a0083f71031bc5bf9aadcd40f1de79423eac9b10b958d9592948d94919260808501928601918190849084905b83811015610cab578181015183820152602001610c93565b50505050905090810190601f168015610cd85780820380516001836020036101000a031916815260200191505b5094505050505060405180910390a160006060306001600160a01b0316888a6040516020018083805190602001908083835b60208310610d295780518252601f199092019160209182019101610d0a565b6001836020036101000a038019825116818451168082178552505050505050905001826001600160a01b03166001600160a01b031660601b8152601401925050506040516020818303038152906040526040518082805190602001908083835b60208310610da85780518252601f199092019160209182019101610d89565b6001836020036101000a0380198251168184511680821785525050505050509050019150506000604051808303816000865af19150503d8060008114610e0a576040519150601f19603f3d011682016040523d82523d6000602084013e610e0f565b606091505b509150915081610e66576040805162461bcd60e51b815260206004820152601c60248201527f46756e6374696f6e2063616c6c206e6f74207375636365737366756c00000000604482015290519081900360640190fd5b98975050505050505050565b604051806040016040528060018152602001603160f81b81525081565b60025490565b60095490565b6000610ea8848484611b70565b610f1e84610eb461193e565b610f198560405180606001604052806028815260200161282d602891396001600160a01b038a16600090815260016020526040812090610ef261193e565b6001600160a01b03168152602081019190915260400160002054919063ffffffff611cd716565b61194d565b5060019392505050565b60009081526006602052604090206002015490565b6001600160a01b03166000908152600a602052604090205490565b610f69610f6361193e565b82611d6e565b50565b600082815260066020526040902060020154610f8f90610f8a61193e565b6114ef565b610fca5760405162461bcd60e51b815260040180806020018281038252602f8152602001806126ad602f913960400191505060405180910390fd5b610fd48282611e76565b5050565b7fea2aa0a1be11a07ed86d755c93467f4f82362b452371d1ba94d1715123511acb81565b60055460ff1690565b4690565b61101161193e565b6001600160a01b0316816001600160a01b0316146110605760405162461bcd60e51b815260040180806020018281038252602f815260200180612905602f913960400191505060405180910390fd5b610fd48282611ee5565b6000610b6561107761193e565b84610f19856001600061108861193e565b6001600160a01b03908116825260208083019390935260409182016000908120918c16815292529020549063ffffffff611b1616565b60006110cc81610f8a61193e565b60079061116c5760405162461bcd60e51b815260206004820190815282546002600019610100600184161502019091160460248301819052909182916044909101908490801561115d5780601f106111325761010080835404028352916020019161115d565b820191906000526020600020905b81548152906001019060200180831161114057829003601f168201915b50509250505060405180910390fd5b506111ac83838080601f016020809104026020016040519081016040528093929190818152602001838380828437600092019190915250611f5492505050565b6111eb83838080601f016020809104026020016040519081016040528093929190818152602001838380828437600092019190915250611f6792505050565b505050565b6001600160a01b031660009081526020819052604090205490565b6000611215610e95565b604080517fea2aa0a1be11a07ed86d755c93467f4f82362b452371d1ba94d1715123511acb6020808301919091526001600160a01b03808e16838501528c166060830152608082018b905260a082018a905288151560c0808401919091528351808403909101815260e08301845280519082012061190160f01b610100840152610102830194909452610122808301949094528251808303909401845261014282018084528451948201949094206000909452610162820180845284905260ff88166101828301526101a282018790526101c2820186905291519293506001926101e28083019392601f198301929081900390910190855afa15801561131f573d6000803e3d6000fd5b505050602060405103516001600160a01b0316896001600160a01b03161461138e576040805162461bcd60e51b815260206004820152601960248201527f554368696c644441493a20494e56414c49442d5045524d495400000000000000604482015290519081900360640190fd5b85158061139b5750854211155b6113ec576040805162461bcd60e51b815260206004820152601960248201527f554368696c644441493a205045524d49542d4558504952454400000000000000604482015290519081900360640190fd5b6001600160a01b0389166000908152600a602052604090208054600181019091558714611460576040805162461bcd60e51b815260206004820152601860248201527f554368696c644441493a20494e56414c49442d4e4f4e43450000000000000000604482015290519081900360640190fd5b3330141561149f5760405162461bcd60e51b81526004018080602001828103825260228152602001806129346022913960400191505060405180910390fd5b6000856114ad5760006114b1565b6000195b90506114be8a8a8361194d565b50505050505050505050565b60008281526006602052604081206114e8908363ffffffff61202316565b9392505050565b60008281526006602052604081206114e8908363ffffffff61202f16565b60048054604080516020601f6002600019610100600188161502019095169490940493840181900481028201810190925282815260609390929091830182828015610b465780601f10610b1b57610100808354040283529160200191610b46565b600081565b604080516d4445504f5349544f525f524f4c4560901b8152905190819003600e01902081565b6000610b656115a661193e565b84610f19856040518060600160405280602581526020016128e060259139600160006115d061193e565b6001600160a01b03908116825260208083019390935260409182016000908120918d1681529252902054919063ffffffff611cd716565b6000610b6561161461193e565b8484611b70565b6111eb338383610e9b565b611631838383610e9b565b50505050565b6000818152600660205260408120610b6990612044565b604080516d4445504f5349544f525f524f4c4560901b8152905190819003600e01902061167d81610f8a61193e565b6007906116e35760405162461bcd60e51b815260206004820190815282546002600019610100600184161502019091160460248301819052909182916044909101908490801561115d5780601f106111325761010080835404028352916020019161115d565b506000838360208110156116f657600080fd5b50359050611704858261204f565b5050505050565b60008281526006602052604090206002015461172990610f8a61193e565b6110605760405162461bcd60e51b81526004018080602001828103825260308152602001806127d86030913960400191505060405180910390fd5b6001600160a01b03918216600090815260016020908152604080832093909416825291909152205490565b60085460ff16156117d8576040805162461bcd60e51b815260206004820152600e60248201526d185b1c9958591e481a5b9a5d195960921b604482015290519081900360640190fd5b61181786868080601f016020809104026020016040519081016040528093929190818152602001838380828437600092019190915250611f5492505050565b61185684848080601f01602080910402602001604051908101604052809392919081815260200183838082843760009201919091525061214b92505050565b61185f8261215e565b6118a0848460405160200180806410da1a5b1960da1b8152506005018383808284378083019250505092505050604051602081830303815290604052612174565b6118b260006118ad61193e565b610fca565b604080516d4445504f5349544f525f524f4c4560901b8152905190819003600e0190206118df9082610fca565b61191e86868080601f01602080910402602001604051908101604052809392919081815260200183838082843760009201919091525061221292505050565b50506008805460ff1916600117905550505050565b6111eb823383610e9b565b6000611948612274565b905090565b6001600160a01b0383166119925760405162461bcd60e51b81526004018080602001828103825260248152602001806128bc6024913960400191505060405180910390fd5b6001600160a01b0382166119d75760405162461bcd60e51b81526004018080602001828103825260228152602001806127416022913960400191505060405180910390fd5b6001600160a01b03808416600081815260016020908152604080832094871680845294825291829020859055815185815291517f8c5be1e5ebec7d5bd14f71427d1e84f3dd0314c0f7b2291e5b200ac8c7c3b9259281900390910190a3505050565b60006001600160a01b038616611a805760405162461bcd60e51b81526004018080602001828103825260258152602001806128086025913960400191505060405180910390fd5b6001611a93611a8e876122d1565b61235d565b83868660405160008152602001604052604051808581526020018460ff1660ff1681526020018381526020018281526020019450505050506020604051602081039080840390855afa158015611aed573d6000803e3d6000fd5b505050602060405103516001600160a01b0316866001600160a01b031614905095945050505050565b6000828201838110156114e8576040805162461bcd60e51b815260206004820152601b60248201527f536166654d6174683a206164646974696f6e206f766572666c6f770000000000604482015290519081900360640190fd5b6001600160a01b038316611bb55760405162461bcd60e51b81526004018080602001828103825260258152602001806128976025913960400191505060405180910390fd5b6001600160a01b038216611bfa5760405162461bcd60e51b815260040180806020018281038252602381526020018061268a6023913960400191505060405180910390fd5b611c058383836111eb565b611c48816040518060600160405280602681526020016127b2602691396001600160a01b038616600090815260208190526040902054919063ffffffff611cd716565b6001600160a01b038085166000908152602081905260408082209390935590841681522054611c7d908263ffffffff611b1616565b6001600160a01b038084166000818152602081815260409182902094909455805185815290519193928716927fddf252ad1be2c89b69c2b068fc378daa952ba7f163c4a11628f55a4df523b3ef92918290030190a3505050565b60008184841115611d665760405162461bcd60e51b81526004018080602001828103825283818151815260200191508051906020019080838360005b83811015611d2b578181015183820152602001611d13565b50505050905090810190601f168015611d585780820380516001836020036101000a031916815260200191505b509250505060405180910390fd5b505050900390565b6001600160a01b038216611db35760405162461bcd60e51b81526004018080602001828103825260218152602001806128766021913960400191505060405180910390fd5b611dbf826000836111eb565b611e02816040518060600160405280602281526020016126dc602291396001600160a01b038516600090815260208190526040902054919063ffffffff611cd716565b6001600160a01b038316600090815260208190526040902055600254611e2e908263ffffffff6123a916565b6002556040805182815290516000916001600160a01b038516917fddf252ad1be2c89b69c2b068fc378daa952ba7f163c4a11628f55a4df523b3ef9181900360200190a35050565b6000828152600660205260409020611e94908263ffffffff6123eb16565b15610fd457611ea161193e565b6001600160a01b0316816001600160a01b0316837f2f8788117e7eff1d82e926ec794901d17c78024a50270940304540a733656f0d60405160405180910390a45050565b6000828152600660205260409020611f03908263ffffffff61240016565b15610fd457611f1061193e565b6001600160a01b0316816001600160a01b0316837ff6391f5c32d9c69d2a47ea670b442974b53935d1edc7fd64eb21e047a839171b60405160405180910390a45050565b8051610fd49060039060208401906125cf565b6040518060800160405280604f8152602001612763604f913980516020918201208251838301206040805180820190915260018152603160f81b930192909252907fc89efdaa54c0f20c7adf612882df0950f5a951637e0307cdcb4c672f298b8bc630611fd2611005565b604080516020808201979097528082019590955260608501939093526001600160a01b03909116608084015260a0808401919091528151808403909101815260c09092019052805191012060095550565b60006114e88383612415565b60006114e8836001600160a01b038416612479565b6000610b6982612491565b6001600160a01b0382166120aa576040805162461bcd60e51b815260206004820152601f60248201527f45524332303a206d696e7420746f20746865207a65726f206164647265737300604482015290519081900360640190fd5b6120b6600083836111eb565b6002546120c9908263ffffffff611b1616565b6002556001600160a01b0382166000908152602081905260409020546120f5908263ffffffff611b1616565b6001600160a01b0383166000818152602081815260408083209490945583518581529351929391927fddf252ad1be2c89b69c2b068fc378daa952ba7f163c4a11628f55a4df523b3ef9281900390910190a35050565b8051610fd49060049060208401906125cf565b6005805460ff191660ff92909216919091179055565b806040516020018082805190602001908083835b602083106121a75780518252601f199092019160209182019101612188565b51815160209384036101000a60001901801990921691161790527f3a20494e53554646494349454e545f5045524d495353494f4e530000000000009190930190815260408051808303600519018152601a90920190528051610fd495506007945092019190506125cf565b60085460ff161561225b576040805162461bcd60e51b815260206004820152600e60248201526d185b1c9958591e481a5b9a5d195960921b604482015290519081900360640190fd5b61226481611f67565b506008805460ff19166001179055565b6000333014156122cc5760606000368080601f0160208091040260200160405190810160405280939291908181526020018383808284376000920191909152505050503601516001600160a01b03169150610b4e9050565b503390565b60006040518060800160405280604381526020016126fe60439139805190602001208260000151836020015184604001518051906020012060405160200180858152602001848152602001836001600160a01b03166001600160a01b03168152602001828152602001945050505050604051602081830303815290604052805190602001209050919050565b6000612367610e95565b82604051602001808061190160f01b81525060020183815260200182815260200192505050604051602081830303815290604052805190602001209050919050565b60006114e883836040518060400160405280601e81526020017f536166654d6174683a207375627472616374696f6e206f766572666c6f770000815250611cd7565b60006114e8836001600160a01b038416612495565b60006114e8836001600160a01b0384166124df565b815460009082106124575760405162461bcd60e51b81526004018080602001828103825260228152602001806126686022913960400191505060405180910390fd5b82600001828154811061246657fe5b9060005260206000200154905092915050565b60009081526001919091016020526040902054151590565b5490565b60006124a18383612479565b6124d757508154600181810184556000848152602080822090930184905584548482528286019093526040902091909155610b69565b506000610b69565b6000818152600183016020526040812054801561259b578354600019808301919081019060009087908390811061251257fe5b906000526020600020015490508087600001848154811061252f57fe5b60009182526020808320909101929092558281526001898101909252604090209084019055865487908061255f57fe5b60019003818190600052602060002001600090559055866001016000878152602001908152602001600020600090556001945050505050610b69565b6000915050610b69565b60405180606001604052806000815260200160006001600160a01b03168152602001606081525090565b828054600181600116156101000203166002900490600052602060002090601f016020900481019282601f1061261057805160ff191683800117855561263d565b8280016001018555821561263d579182015b8281111561263d578251825591602001919060010190612622565b5061264992915061264d565b5090565b610b4e91905b80821115612649576000815560010161265356fe456e756d657261626c655365743a20696e646578206f7574206f6620626f756e647345524332303a207472616e7366657220746f20746865207a65726f2061646472657373416363657373436f6e74726f6c3a2073656e646572206d75737420626520616e2061646d696e20746f206772616e7445524332303a206275726e20616d6f756e7420657863656564732062616c616e63654d6574615472616e73616374696f6e2875696e74323536206e6f6e63652c616464726573732066726f6d2c62797465732066756e6374696f6e5369676e61747572652945524332303a20617070726f766520746f20746865207a65726f2061646472657373454950373132446f6d61696e28737472696e67206e616d652c737472696e672076657273696f6e2c6164647265737320766572696679696e67436f6e74726163742c627974657333322073616c742945524332303a207472616e7366657220616d6f756e7420657863656564732062616c616e6365416363657373436f6e74726f6c3a2073656e646572206d75737420626520616e2061646d696e20746f207265766f6b654e61746976654d6574615472616e73616374696f6e3a20494e56414c49445f5349474e455245524332303a207472616e7366657220616d6f756e74206578636565647320616c6c6f77616e63655369676e657220616e64207369676e617475726520646f206e6f74206d6174636845524332303a206275726e2066726f6d20746865207a65726f206164647265737345524332303a207472616e736665722066726f6d20746865207a65726f206164647265737345524332303a20617070726f76652066726f6d20746865207a65726f206164647265737345524332303a2064656372656173656420616c6c6f77616e63652062656c6f77207a65726f416363657373436f6e74726f6c3a2063616e206f6e6c792072656e6f756e636520726f6c657320666f722073656c66554368696c644441493a205045524d49545f4d4554415f54585f44495341424c4544a2646970667358221220e33bb08892e9ff97cb3624879d1418a92a9913400b229de4f9e516e1c7c7cc5b64736f6c63430006060033",
  "immutableReferences": {},
  "source": "pragma solidity 0.6.6;\n\nimport {UChildERC20} from \"../UpgradeableChildERC20/UChildERC20.sol\";\n\ncontract UChildDAI is UChildERC20 {\n    // bytes32 public constant PERMIT_TYPEHASH = keccak256(\"Permit(address holder,address spender,uint256 nonce,uint256 expiry,bool allowed)\");\n    bytes32 public constant PERMIT_TYPEHASH = 0xea2aa0a1be11a07ed86d755c93467f4f82362b452371d1ba94d1715123511acb;\n\n    // --- Alias ---\n    function push(address usr, uint wad) external {\n        transferFrom(msg.sender, usr, wad);\n    }\n    function pull(address usr, uint wad) external {\n        transferFrom(usr, msg.sender, wad);\n    }\n    function move(address src, address dst, uint wad) external {\n        transferFrom(src, dst, wad);\n    }\n\n    // --- Approve by signature ---\n    function permit(\n        address holder,\n        address spender,\n        uint256 nonce,\n        uint256 expiry,\n        bool allowed,\n        uint8 v,\n        bytes32 r,\n        bytes32 s\n    ) external {\n        bytes32 digest = keccak256(\n            abi.encodePacked(\n                \"\\x19\\x01\",\n                getDomainSeperator(),\n                keccak256(\n                    abi.encode(\n                        PERMIT_TYPEHASH,\n                        holder,\n                        spender,\n                        nonce,\n                        expiry,\n                        allowed\n                    )\n                )\n        ));\n\n        require(holder == ecrecover(digest, v, r, s), \"UChildDAI: INVALID-PERMIT\");\n        require(expiry == 0 || now <= expiry, \"UChildDAI: PERMIT-EXPIRED\");\n        require(nonce == nonces[holder]++, \"UChildDAI: INVALID-NONCE\");\n        require(msg.sender != address(this), \"UChildDAI: PERMIT_META_TX_DISABLED\");\n        uint wad = allowed ? uint(-1) : 0;\n        _approve(holder, spender, wad);\n    }\n}\n",
  "sourcePath": "/home/moiz/pos-portal/contracts/child/ChildToken/DappTokens/UChildDAI.sol",
  "compiler": {
    "name": "solc",
    "version": "0.6.6+commit.6c089d02.Emscripten.clang"
  },
  "schemaVersion": "3.2.1",
  "updatedAt": "2022-07-22T04:49:50.744Z",
  "devdoc": {
    "methods": {
      "allowance(address,address)": {
        "details": "See {IERC20-allowance}."
      },
      "approve(address,uint256)": {
        "details": "See {IERC20-approve}.     * Requirements:     * - `spender` cannot be the zero address."
      },
      "balanceOf(address)": {
        "details": "See {IERC20-balanceOf}."
      },
      "decimals()": {
        "details": "Returns the number of decimals used to get its user representation. For example, if `decimals` equals `2`, a balance of `505` tokens should be displayed to a user as `5,05` (`505 / 10 ** 2`).     * Tokens usually opt for a value of 18, imitating the relationship between Ether and Wei. This is the value {ERC20} uses, unless {_setupDecimals} is called.     * NOTE: This information is only used for _display_ purposes: it in no way affects any of the arithmetic of the contract, including {IERC20-balanceOf} and {IERC20-transfer}."
      },
      "decreaseAllowance(address,uint256)": {
        "details": "Atomically decreases the allowance granted to `spender` by the caller.     * This is an alternative to {approve} that can be used as a mitigation for problems described in {IERC20-approve}.     * Emits an {Approval} event indicating the updated allowance.     * Requirements:     * - `spender` cannot be the zero address. - `spender` must have allowance for the caller of at least `subtractedValue`."
      },
      "deposit(address,bytes)": {
        "details": "Should be callable only by ChildChainManager Should handle deposit by minting the required amount for user Make sure minting is done only by this function",
        "params": {
          "depositData": "abi encoded amount",
          "user": "user address for whom deposit is being done"
        }
      },
      "getRoleAdmin(bytes32)": {
        "details": "Returns the admin role that controls `role`. See {grantRole} and {revokeRole}.     * To change a role's admin, use {_setRoleAdmin}."
      },
      "getRoleMember(bytes32,uint256)": {
        "details": "Returns one of the accounts that have `role`. `index` must be a value between 0 and {getRoleMemberCount}, non-inclusive.     * Role bearers are not sorted in any particular way, and their ordering may change at any point.     * WARNING: When using {getRoleMember} and {getRoleMemberCount}, make sure you perform all queries on the same block. See the following https://forum.openzeppelin.com/t/iterating-over-elements-on-enumerableset-in-openzeppelin-contracts/2296[forum post] for more information."
      },
      "getRoleMemberCount(bytes32)": {
        "details": "Returns the number of accounts that have `role`. Can be used together with {getRoleMember} to enumerate all bearers of a role."
      },
      "grantRole(bytes32,address)": {
        "details": "Grants `role` to `account`.     * If `account` had not been already granted `role`, emits a {RoleGranted} event.     * Requirements:     * - the caller must have ``role``'s admin role."
      },
      "hasRole(bytes32,address)": {
        "details": "Returns `true` if `account` has been granted `role`."
      },
      "increaseAllowance(address,uint256)": {
        "details": "Atomically increases the allowance granted to `spender` by the caller.     * This is an alternative to {approve} that can be used as a mitigation for problems described in {IERC20-approve}.     * Emits an {Approval} event indicating the updated allowance.     * Requirements:     * - `spender` cannot be the zero address."
      },
      "initialize(string,string,uint8,address)": {
        "details": "meant to be called once immediately after deployment"
      },
      "name()": {
        "details": "Returns the name of the token."
      },
      "renounceRole(bytes32,address)": {
        "details": "Revokes `role` from the calling account.     * Roles are often managed via {grantRole} and {revokeRole}: this function's purpose is to provide a mechanism for accounts to lose their privileges if they are compromised (such as when a trusted device is misplaced).     * If the calling account had been granted `role`, emits a {RoleRevoked} event.     * Requirements:     * - the caller must be `account`."
      },
      "revokeRole(bytes32,address)": {
        "details": "Revokes `role` from `account`.     * If `account` had been granted `role`, emits a {RoleRevoked} event.     * Requirements:     * - the caller must have ``role``'s admin role."
      },
      "symbol()": {
        "details": "Returns the symbol of the token, usually a shorter version of the name."
      },
      "totalSupply()": {
        "details": "See {IERC20-totalSupply}."
      },
      "transfer(address,uint256)": {
        "details": "See {IERC20-transfer}.     * Requirements:     * - `recipient` cannot be the zero address. - the caller must have a balance of at least `amount`."
      },
      "transferFrom(address,address,uint256)": {
        "details": "See {IERC20-transferFrom}.     * Emits an {Approval} event indicating the updated allowance. This is not required by the EIP. See the note at the beginning of {ERC20};     * Requirements: - `sender` and `recipient` cannot be the zero address. - `sender` must have a balance of at least `amount`. - the caller must have allowance for ``sender``'s tokens of at least `amount`."
      },
      "withdraw(uint256)": {
        "details": "Should burn user's tokens. This transaction will be verified when exiting on root chain",
        "params": {
          "amount": "amount of tokens to withdraw"
        }
      }
    }
  },
  "userdoc": {
    "methods": {
      "deposit(address,bytes)": {
        "notice": "called when token is deposited on root chain"
      },
      "initialize(string,string,uint8,address)": {
        "notice": "Initialize the contract after it has been proxified"
      },
      "withdraw(uint256)": {
        "notice": "called when user wants to withdraw tokens back to root chain"
      }
    }
  }
}